:020000040000FA
:060000000EEF02F01200F9
:020006000000F8
:08000800D9CFE6FFE1CFD9FFDB
:100010000C0EE126956A836A966A846A949094929B
:10002000938C010EC26E0E0EC16E8A0EC06E0F0E44
:10003000E66EE66A56D9E552E552380EE66E27D9E5
:10004000E5520F0EE66EE66A4CD9E552E5520E0E09
:10005000E66E1DD9E5520F0EE66EE66A42D9E5520C
:10006000E552010EE66E13D9E5520F0EE66EE66A12
:1000700038D9E552E552060EE66E09D9E5520F0E63
:10008000E66EE66A2ED9E552E55281AC02D0828254
:1000900001D08292810EE66EFAD8E552140EE66E19
:1000A000E66A1FD9E552E552C282C250020B020A2B
:1000B00001E0010E010801E1F8D7070EC3CFDBFF15
:1000C000C450E66ED950080FE96EDACFEAFFE55268
:1000D000E750EE6EED6A080EDBCF00F0090EDBCFC5
:1000E00001F000C001F0006A080E00C0DBFF090E3D
:1000F00001C0DBFF070EDB50E76E080EDBCF00F020
:10010000090EDBCF01F0E75000120A0E00C0DBFF42
:100110000B0E01C0DBFFD9500A0FE96EDACFEAFF00
:100120002C0ED880EE54010EED540DE20A0EDBCFFA
:1001300000F00B0EDBCF01F0200E005C030E015827
:1001400002E2829001D082800F0EC414E76E040E8A
:10015000E7CFDBFFF00EC314E8380F0BE76E050E98
:10016000E7CFDBFF0F0EC314E76E060EE7CFDBFF12
:10017000020EDB6A030EDB6A020EDBCF00F0030E19
:10018000DBCF01F0005C000E015870E2D950040F83
:10019000016EDACF02F0020EDB500124E96E030E8D
:1001A000DB500220EA6EEFCF00F00A0E005C21E285
:1001B000D950040F026EDACF03F0020EDB50022496
:1001C000E96E030EDB500320EA6EEF50300FE66E4F
:1001D000D950040F006EDACF01F0020EDB5000247C
:1001E000E96E030EDB500120EA6EE552E750EF6E38
:1001F00020D0D950040F026EDACF03F0020EDB508C
:100200000224E96E030EDB500320EA6EEF50370F35
:10021000E66ED950040F006EDACF01F0020EDB500B
:100220000024E96E030EDB500120EA6EE552E75030
:10023000EF6ED950040F006EDACF01F0020EDB50E2
:100240000024E96E030EDB500120EA6EEF50E66EEB
:1002500033D8E5520F0EE66EE66A43D8E552E55212
:10026000020EDB2A030E01E3DB2A86D70A0EE66EB6
:10027000E66A37D8E552E55208D70C0EE15C02E297
:10028000E16AE552E16EE552E7CFD9FF1200D9CF1E
:10029000E6FFE1CFD9FFFE0EDB50836E849084929F
:1002A0008484010EE66EE66A1CD8E552E552849419
:1002B000E552E7CFD9FF1200D9CFE6FFE1CFD9FF52
:1002C000FE0EDB50836E848084928484010EE66E81
:1002D000E66A07D8E552E5528494E552E7CFD9FFA4
:1002E0001200D9CFE6FFE1CFD9FF040EE126DE6A86
:1002F000DD6ADECF00F0DDCF01F0FD0EDBCF02F0D6
:10030000FE0EDBCF03F00250005C035001581DE2EB
:10031000020EDB6A030EDB6A020EDBCF00F0030E77
:10032000DBCF01F0D890015004E6870E005C000E90
:10033000015806E2020EDB2A030E01E3DB2AECD7AA
:10034000DF2A010E01E3DB2AD4D7040EE15C02E2CE
:0E035000E16AE552E16EE552E7CFD9FF1200F7
:02035E00060E89
:10036000F66E000EF76E000EF86E00010900F550F3
:10037000656F0900F550666F03E1656701D03DD0F8
:100380000900F550606F0900F550616F0900F550E4
:10039000626F09000900F550E96E0900F550EA6E38
:1003A000090009000900F550636F0900F550646FFA
:1003B00009000900F6CF67F0F7CF68F0F8CF69F0D1
:1003C00060C0F6FF61C0F7FF62C0F8FF0001635331
:1003D00002E1645307E00900F550EE6E6307F8E2AE
:1003E0006407F9D767C0F6FF68C0F7FF69C0F8FF78
:0C03F00000016507000E665BBFD712001D
:0403FC00000EF36E8E
:1004000000EE00F0080E01D81200EA6002D0EE6A99
:0C041000FCD7F350E9601200EE6AFCD744
:04041C0013EE00F0EB
:1004200023EE00F0F86A059CAFEC01F01CEC02F042
:0804300004EC00F0FBD7120000
:020438001200B0
:00000001FF
